{
    "contractName": "Raffle",
    "abi": [
        {
            "inputs": [
                {
                    "internalType": "uint256",
                    "name": "entranceFee",
                    "type": "uint256"
                }
            ],
            "stateMutability": "nonpayable",
            "type": "constructor"
        },
        {
            "inputs": [],
            "name": "NotEnoughEthEntered",
            "type": "error"
        },
        {
            "anonymous": false,
            "inputs": [
                {
                    "indexed": true,
                    "internalType": "address",
                    "name": "player",
                    "type": "address"
                }
            ],
            "name": "RaffleEntered",
            "type": "event"
        },
        {
            "inputs": [],
            "name": "enterRaffle",
            "outputs": [],
            "stateMutability": "payable",
            "type": "function"
        },
        {
            "inputs": [],
            "name": "getEntranceFee",
            "outputs": [
                {
                    "internalType": "uint256",
                    "name": "",
                    "type": "uint256"
                }
            ],
            "stateMutability": "view",
            "type": "function"
        },
        {
            "inputs": [],
            "name": "i_entranceFee",
            "outputs": [
                {
                    "internalType": "uint256",
                    "name": "",
                    "type": "uint256"
                }
            ],
            "stateMutability": "view",
            "type": "function"
        },
        {
            "inputs": [],
            "name": "pickWinner",
            "outputs": [],
            "stateMutability": "nonpayable",
            "type": "function"
        }
    ],
    "bytecode": "60a034605d57601f61023138819003918201601f19168301916001600160401b03831184841017606157808492602094604052833981010312605d57516080526040516101bb90816100768239608051818181606d01526101620152f35b5f80fd5b634e487b7160e01b5f52604160045260245ffdfe60806040526004361015610011575f80fd5b5f3560e01c806309bc33a71461014b5780632cfcc539146100605780635d495aea1461004a57637ea3e6c114610045575f80fd5b61014b565b3461005c575f36600319011261005c57005b5f80fd5b5f36600319011261005c577f000000000000000000000000000000000000000000000000000000000000000034101561013c575f54680100000000000000008110156101285760018101805f55811015610114577f290decd9548b62a8d60345a988386fc84ba6bc95484008f6362f93160ef3e56301336bffffffffffffffffffffffff60a01b825416179055337f634f3211e3a4e43fee5a21ad9f87ca153b300fc78b1c557a2057dbe9c63bcb475f80a2005b634e487b7160e01b5f52603260045260245ffd5b634e487b7160e01b5f52604160045260245ffd5b631ab4e45d60e11b5f5260045ffd5b3461005c575f36600319011261005c5760206040517f00000000000000000000000000000000000000000000000000000000000000008152f3fea26469706673582212203bf259aa0d0f218faa2fb5d01876473a45e244162d1bec340e4b214b618608aa64736f6c634300081e0033",
    "sourcePath": "c:/Users/Mir Mohmmad Luqman/Documents/Practice Projects/Foundry-Lottery/Raffle.sol",
    "compiler": {
        "name": "solc",
        "version": "0.8.30+commit.73712a01"
    },
    "functionHashes": {
        "enterRaffle()": "2cfcc539",
        "getEntranceFee()": "09bc33a7",
        "i_entranceFee()": "7ea3e6c1",
        "pickWinner()": "5d495aea"
    },
    "gasEstimates": {
        "creation": {
            "codeDepositCost": "88600",
            "executionCost": "infinite",
            "totalCost": "infinite"
        },
        "external": {
            "enterRaffle()": "infinite",
            "getEntranceFee()": "infinite",
            "i_entranceFee()": "infinite",
            "pickWinner()": "171"
        }
    }
}